:100000000C9434000C9449000C9449000C94490061
:100010000C9449000C9449000C9449000C9449003C
:100020000C9449000C9449000C9449000C9449002C
:100030000C9449000C9449000C9449000C9449001C
:100040000C9449000C9449000C9449000C9449000C
:100050000C9449000C9449000C9449000C944900FC
:100060000C9449000C94490011241FBECFEFD8E036
:10007000DEBFCDBF11E0A0E0B1E0E6E0F3E002C0FA
:1000800005900D92A036B107D9F70E9497000C9405
:1000900081010C9400001092C50087E68093C40093
:1000A00088E18093C10086E08093C200089590911A
:1000B000C00095FFFCCF8093C6000895CF93DF93D7
:1000C000EC0103C021960E94570088818111FACF6C
:1000D000DF91CF910895AC0120E09091C000992369
:1000E000E4F79091C6009A3011F09D3029F4FA019E
:1000F000E20FF11D10820895FA01E20FF11D9083C5
:100100002F5FEBCF8AB180648AB983E884BD83E036
:1001100085BD0895853608F084E62FEF829FC001E3
:10012000112464E670E00E94F50067BD0895CF9346
:10013000DF93CDB7DEB76E970FB6F894DEBF0FBE74
:10014000CDBF0E944B000E94820080E00E948A0086
:1001500080E091E00E945E00CE0101960E946B005B
:100160006FE071E0CE0101960E943B01892B41F4C2
:1001700084E60E948A0082E191E00E945E00ECCF5A
:1001800062E271E0CE0101960E943B01892B41F4AD
:1001900080E00E948A0086E291E00E945E00DCCF4F
:1001A000CE0101960E941D01182F092F8536910559
:1001B000B8F40E948A0087E391E00E945E004AE062
:1001C000BE016B5E7F4F812F902F0E944401CE01B4
:1001D00045960E945E008AE491E00E945E00BCCFDA
:1001E0008EE491E00E945E00B7CF97FB072E16F4D5
:1001F000009407D077FD09D00E94090107FC05D0C3
:100200003EF4909581959F4F0895709561957F4F2D
:100210000895AA1BBB1B51E107C0AA1FBB1FA6174D
:10022000B70710F0A61BB70B881F991F5A95A9F79F
:1002300080959095BC01CD010895FC0188279927F0
:10024000E89421912032E9F3293010F02E30C8F3E0
:100250002B3241F02D3239F4689404C00E944F01D2
:10026000820F911D219120532A30C0F31EF49095E6
:1002700081959F4F0895FB01DC018D9101908019BC
:100280000110D9F3990B0895BB274A3031F4992313
:1002900022F4BDE2909581959F4F0C9458017AE02D
:1002A000979F902D879F802D910D11240895BB2736
:1002B000FB015527AA27880F991FAA1FA41710F022
:1002C000A41B83955051B9F7A05DAA3308F0A95D2E
:1002D000A193009779F7B111B1931192CB010C94CE
:1002E0007101DC01FC01672F71917723E1F73297EF
:1002F00004C07C916D9370836291AE17BF07C8F301
:060300000895F894FFCF00
:1003060053797374656D2052656164790D0A004FE7
:100316004E004C4544206973206E6F77204F4E0D7A
:100326000A004F4646004C4544206973206E6F779D
:10033600204F46460D0A004272696768746E6573FF
:10034600732073657420746F2000250D0A00496EB2
:1003560076616C696420436F6D6D616E640D0A0091
:00000001FF
