:100000000C9434000C943E000C943E000C943E0082
:100010000C943E000C943E000C943E000C943E0068
:100020000C943E000C943E000C943E000C943E0058
:100030000C943E000C943E000C943E000C943E0048
:100040000C943E000C943E000C943E000C943E0038
:100050000C943E000C943E000C943E000C943E0028
:100060000C943E000C943E0011241FBECFEFD8E04C
:10007000DEBFCDBF0E9469000C94AE000C9400005E
:1000800080E480937C0086E880937A000895EAE714
:10009000F0E080818064808380917A0086FDFCCFCF
:1000A000809178009091790008950E9447009C010A
:1000B000A0EDB7E00E949F002FEF33E040E050E05A
:1000C0000E947D002053384F309389002093880090
:1000D000089584B1826084B90E94400080E88093D2
:1000E000800082E18093810080E49CE99093870006
:1000F000809386000E945500FDCFA1E21A2EAA1B14
:10010000BB1BFD010DC0AA1FBB1FEE1FFF1FA217C7
:10011000B307E407F50720F0A21BB30BE40BF50BC4
:10012000661F771F881F991F1A9469F7609570954D
:10013000809590959B01AC01BD01CF010895A29FD0
:10014000B001B39FC001A39F700D811D1124911DAB
:10015000B29F700D811D1124911D0895F894FFCF59
:00000001FF
