S016000064632D6D6F746F722D73706565642E73726563AB
S11300000C9434000C9456000C9446000C94460056
S11300100C9446000C9446000C9446000C94460044
S11300200C9446000C9446000C9446000C94460034
S11300300C9446000C9446000C9446000C94460024
S11300400C9446000C9446000C9446000C94460014
S11300500C9446000C9446000C9446000C94460004
S11300600C9446000C94460011241FBECFEFD8E038
S1130070DEBFCDBF21E0A0E0B1E001C01D92A230FF
S1130080B207E1F70E9465000C94B1000C940000E3
S113009007C08FE99FE00197F1F700C00000C90194
S11300A09C0121503109892BA1F708951F920F92C9
S11300B00FB60F9211248F9381E0809301018F91E9
S11300C00F900FBE0F901F9018958AB180648AB963
S11300D08AB181608AB98AB182608AB98BB1816040
S11300E08BB98BB18D7F8BB98AB18B7F8AB98BB178
S11300F084608BB981E884BD83E085BD80E487BDDD
S113010082E08093690081E08DBB78948091010145
S1130110882369F010920101809100018F5F809320
S1130120000180910001843010F010920001809150
S11301300001813049F028F0823049F0833051F0D9
S11301400BC080E487BD08C080E887BD05C080EC93
S113015087BD02C08FEF87BD84E690E00E9448000F
S1090160D5CFF894FFCF97
S9030000FC
