:100000000C9434000C9453000C9451000C94510047
:100010000C9451000C9451000C9451000C9451001C
:100020000C9451000C9451000C9451000C9451000C
:100030000C9451000C9451000C9451000C945100FC
:100040000C9451000C9451000C9451000C945100EC
:100050000C9451000C9451000C9451000C945100DC
:100060000C9451000C94510011241FBECFEFD8E026
:10007000DEBFCDBF11E0A0E0B1E0EAE9F3E002C0ED
:1000800005900D92A631B107D9F721E0A6E1B1E0C4
:1000900001C01D92A931B207E1F70E9469010C94D9
:1000A000CB010C9400001F920F920FB60F921124F7
:1000B0008F9381E0809316018F910F900FBE0F9068
:1000C0001F9018958AB18B7F8AB98BB184608BB9E8
:1000D0008DB381608DBBE9E6F0E080818260808332
:1000E00080818E7F80838CB381608CBB78940895EF
:1000F00085B1826085B985E08A95F1F7000085B108
:100100008D7F85B987EC90E00197F1F700C0000082
:10011000089595B1937C95B983FF03C095B1946020
:1001200095B982FF03C095B1986095B981FF03C06E
:1001300095B1906195B980FF03C085B1806285B9A2
:100140000E9478000895CF93C82F613021F485B1C3
:10015000816085B903C085B18E7F85B98C2F82956A
:100160008F700E9489008C2F8F700E948900CF9120
:100170000895CF93C82F60E00E94A300C150C23001
:1001800030F48FE39FE10197F1F700C00000CF91B9
:10019000089561E00E94A3000895882311F090E47F
:1001A00001C090E0862F8F70890F80680E94B9008F
:1001B0000895CF93DF93EC0103C021960E94C900FC
:1001C00088818111FACFDF91CF91089581E00E945B
:1001D000B900089584B1816084B984B1826084B922
:1001E00084B18C6384B92FEF89EF90E02150804077
:1001F0009040E1F700C0000085B18E7F85B985B1E0
:100200008D7F85B983E00E9489008FE19EE401978C
:10021000F1F700C0000083E00E94890087E592E0CA
:100220000197F1F700C0000083E00E94890087E594
:1002300092E00197F1F700C0000082E00E9489007F
:1002400087E592E00197F1F700C0000088E20E9484
:10025000B90088E00E94B90081E00E94B90086E000
:100260000E94B9008CE00E94B9000895CF93DF93FB
:10027000EC018A30910568F09C01ADECBCEC0E9469
:10028000BC019695879596958795969587950E943A
:1002900036019E01ADECBCEC0E94BC0196958795A1
:1002A00096958795969587959C01220F331F880F09
:1002B000991F880F991F880F991F820F931F9E0106
:1002C000281B390BC901805D0E94C900DF91CF91C5
:1002D00008950E94EA000E9462000E94E60060E029
:1002E00080E00E94CD0080E091E00E94D9008091E2
:1002F0001601882329F11092160180E090E010C0C9
:10030000EFE3FCE93197F1F700C000000A96803D69
:10031000F7E09F0728F0109218011092170102C011
:100320004A9BEECF803D974048F480911701909111
:100330001801019690931801809317014A9BFECFF4
:1003400060E081E00E94CD008DE091E00E94D90044
:1003500060E081E00E94CD0080911701909118012A
:100360000E9436018FEF93ECE9E081509040E0402D
:10037000E1F700C00000BBCFA29FB001B39FC00156
:10038000A39F700D811D1124911DB29F700D811DC1
:0A0390001124911D0895F894FFCF89
:10039A004576656E7420436F756E743A002020208E
:0603AA00202020202000AD
:00000001FF
