S0120000747261666669632D64632E737265633F
S11300000C9434000C9480000C9446000C9446002C
S11300100C9446000C9446000C9446000C94460044
S11300200C9446000C9446000C9446000C94460034
S11300300C9446000C9446000C9446000C94460024
S11300400C9446000C9446000C9446000C94460014
S11300500C9446000C9446000C9446000C94460004
S11300600C9446000C94460011241FBECFEFD8E038
S1130070DEBFCDBF21E0A0E0B1E001C01D92A13000
S1130080B207E1F70E94AA000C9403010C9400004B
S113009007C08FE99FE00197F1F700C00000C90194
S11300A09C0121503109892BA1F7089585B1817FE5
S11300B085B985B1886085B9089585B1817F85B991
S11300C085B1846085B9089585B1817F85B985B18D
S11300D0826085B908958BB181608BB98BB18D7FB6
S11300E08BB908958BB182608BB98BB18E7F8BB93C
S11300F008958BB18E7F8BB98BB18D7F8BB90895A9
S11301001F920F920FB60F9211248F9381E0809368
S113011000018F910F900FBE0F901F9018951092B1
S113012000010E9456000E946B0080E197E20E9449
S113013048000E94790080E29EE40E9448000E94E8
S1130140720080E197E20E9448000E9479000E94B8
S1130150640008958AB183648AB984B18E6084B9D5
S11301608AB18B7F8AB98BB184608BB98BB180647F
S11301708BB9E9E6F0E080818260808380818E7FA4
S113018080838CB381608CBB8DB381608DBB78948C
S113019080910001813019F40E948F00F9CF0E94F0
S11301A0640088E893E10E94480080910001813056
S11301B049F40E945D0088EB9BE00E9448000E9485
S11301C08F00E6CF0E945D0088EB9BE00E94480010
S11301D080910001813019F40E948F00D9CF0E94D0
S11301E0560088E893E10E94480080910001813024
S11301F019F40E948F00CCCF0E945D0088EB9BE035
S10D02000E944800C5CFF894FFCF18
S9030000FC
