:100000000C9434000C9484000C9446000C9446002C
:100010000C9446000C9446000C9446000C94460048
:100020000C9446000C9446000C9446000C94460038
:100030000C9446000C9446000C9446000C94460028
:100040000C9446000C9446000C9446000C94460018
:100050000C9446000C9446000C9446000C94460008
:100060000C9446000C94460011241FBECFEFD8E03C
:10007000DEBFCDBF21E0A0E0B1E001C01D92A13004
:10008000B207E1F70E9493000C94F2000C94000078
:100090000BC080910001813061F08FE99FE00197F2
:1000A000F1F700C00000C9019C0121503109892BE2
:1000B00081F7089585B1817F85B985B1886085B95B
:1000C000089585B1817F85B985B1846085B908952A
:1000D00085B1817F85B985B1826085B908958BB17D
:1000E00081608BB98BB18D7F8BB908958BB18260A4
:1000F0008BB98BB18E7F8BB908958BB18E7F8BB905
:100100008BB18D7F8BB908951F920F920FB60F920E
:1001100011248F9381E0809300018F910F900FBE87
:100120000F901F9018958AB183648AB984B18E604C
:1001300084B98AB18B7F8AB98BB184608BB98BB15A
:1001400080648BB9E9E6F0E080818C7F80838CB39A
:1001500081608CBB8DB381608DBB789480910001F0
:100160008130D9F4109200010E945A000E946F0061
:1001700080E197E20E9448000E947D0080E29EE4B8
:100180000E9448000E94760080E197E20E944800A9
:100190000E947D000E946800E1CF0E94680088E80C
:1001A00093E10E944800809100018130B9F20E94E1
:1001B000610088EB9BE00E94480080910001813043
:1001C00069F20E945A0088E893E10E9448008091F9
:1001D0000001813019F20E94610088EB9BE00E94CF
:0801E0004800BCCFF894FFCFEA
:00000001FF
