:100000000C9434000C9478000C943E000C943E0048
:100010000C943E000C943E000C943E000C943E0068
:100020000C943E000C943E000C943E000C943E0058
:100030000C943E000C943E000C943E000C943E0048
:100040000C943E000C943E000C943E000C943E0038
:100050000C943E000C943E000C943E000C943E0028
:100060000C943E000C943E0011241FBECFEFD8E04C
:10007000DEBFCDBF0E94B2000C94E6000C940000DD
:1000800007C08FE99FE00197F1F700C00000C901A8
:100090009C0121503109892BA1F7089585B1817FF9
:1000A00085B985B1886085B9089585B1817F85B9A5
:1000B00085B1846085B9089585B1817F85B985B1A1
:1000C000826085B908958BB181608BB98BB18D7FCA
:1000D0008BB908958BB182608BB98BB18E7F8BB950
:1000E00008958BB18E7F8BB98BB18D7F8BB90895BD
:1000F0001F920F920FB60F9211242F933F934F939D
:100100005F936F937F938F939F93AF93BF93EF937F
:10011000FF930E944E000E94630080E197E20E94DC
:1001200040000E94710080E29EE40E9440000E9414
:100130006A0080E197E20E9440000E9471000E94E4
:100140005C00FF91EF91BF91AF919F918F917F9153
:100150006F915F914F913F912F910F900FBE0F9034
:100160001F9018958AB183648AB984B18E6084B96E
:100170008AB18B7F8AB98BB184608BB98BB1806473
:100180008BB98CB381608CBBE9E6F0E08081836041
:1001900080838DB381608DBB78940E945C0088E879
:1001A00093E10E9440000E94550088EB9BE00E9472
:1001B00040000E944E0088E893E10E9440000E94A7
:1001C000550088EB9BE00E944000E7CFF894FFCFFA
:00000001FF
