S0150000747261666669635F6C696768742E73726563B9
S11300000C9434000C943E000C943E000C943E007E
S11300100C943E000C943E000C943E000C943E0064
S11300200C943E000C943E000C943E000C943E0054
S11300300C943E000C943E000C943E000C943E0044
S11300400C943E000C943E000C943E000C943E0034
S11300500C943E000C943E000C943E000C943E0024
S11300600C943E000C943E0011241FBECFEFD8E048
S1130070DEBFCDBF0E9455000C9489000C94000093
S113008085B1887F85B985B1846085B9089585B1C6
S1130090887F85B985B1826085B9089585B1887FE7
S11300A085B985B1816085B9089584B1876084B9C3
S11300B00E9440002FEF39E582E692E02150304063
S11300C080409040D9F700C000000E9447002FEF05
S11300D03BE782E9215030408040E1F700C0000056
S11300E00E944E009FEF29E532E682E091502040C5
S11300F030408040D9F700C000000E9447009FEFC5
S11301002BE732E9915020403040E1F700C0000075
S1090110CFCFF894FFCFED
S9030000FC
