S018000074696D65725F7072657363616C696E672E7372656364
S11300000C9434000C943E000C943E000C943E007E
S11300100C943E000C943E000C943E000C943E0064
S11300200C943E000C943E000C943E000C943E0054
S11300300C943E000C943E000C943E000C943E0044
S11300400C943E000C943E000C943E000C943E0034
S11300500C943E000C943E000C943E000C943E0024
S11300600C943E000C943E0011241FBECFEFD8E048
S1130070DEBFCDBF0E9458000C9466000C940000B3
S113008016BC84B58C7F84BD85B5856085BD85B57A
S11300908D7F85BD20E030E007C0A89BFECF85B3EF
S11300A0816085BB2F5F3F4F2D333105B4F3089535
S11300B084B1806284B985B1806285B90E944000B0
S11300C085B18F7D85B90E944000F5CFF894FFCFAC
S9030000FC
