:100000000C9434000C943E000C943E000C943E0082
:100010000C943E000C943E000C943E000C943E0068
:100020000C943E000C943E000C943E000C943E0058
:100030000C943E000C943E000C943E000C943E0048
:100040000C943E000C943E000C943E000C943E0038
:100050000C943E000C943E000C943E000C943E0028
:100060000C943E000C943E0011241FBECFEFD8E04C
:10007000DEBFCDBF0E9463000C9493000C9400007F
:1000800007C08FE99FE00197F1F700C00000C901A8
:100090009C0121503109892BA1F708958BB1806211
:1000A0008BB98BB18F7E8BB908958BB18F7D8BB956
:1000B0008BB180618BB908958BB18F7D8BB98BB17A
:1000C0008F7E8BB908958AB180678AB984B58160C3
:1000D00084BD84B58D7F84BD84B5806884BD84B5BE
:1000E0008F7B84BD85B5836085BD85B58B7F85BDE0
:1000F0008CE487BD0E944E0088E893E10E94400096
:100100000E945C0088EB9BE00E9440000E9455002A
:1001100088E893E10E9440000E945C0088EB9BE02D
:0A0120000E944000E7CFF894FFCFE3
:00000001FF
