:100000000C9434000C943E000C943E000C943E0082
:100010000C943E000C943E000C943E000C943E0068
:100020000C943E000C943E000C943E000C943E0058
:100030000C943E000C943E000C943E000C943E0048
:100040000C943E000C943E000C943E000C943E0038
:100050000C943E000C943E000C943E000C943E0028
:100060000C943E000C943E0011241FBECFEFD8E04C
:10007000DEBFCDBF0E9463000C9493000C9400007F
:100080008AB181608AB98AB180648AB98BB1816092
:100090008BB984B5836084BD84B5806884BD85B523
:1000A000836085BD0895853608F084E62FEF829F32
:1000B000C001112464E670E00E946B0067BD0895E2
:1000C00087B587BD08950E9440008EE10E945300CD
:1000D0000E946000FFCF97FB072E16F4009407D014
:1000E00077FD09D00E947F0007FC05D03EF4909573
:1000F00081959F4F0895709561957F4F0895AA1B34
:10010000BB1B51E107C0AA1FBB1FA617B70710F002
:10011000A61BB70B881F991F5A95A9F78095909534
:0A012000BC01CD010895F894FFCF53
:00000001FF
