S01D000064632D6D6F746F722D637573746F6D2D73706565642E73726563DC
S11300000C9434000C943E000C943E000C943E007E
S11300100C943E000C943E000C943E000C943E0064
S11300200C943E000C943E000C943E000C943E0054
S11300300C943E000C943E000C943E000C943E0044
S11300400C943E000C943E000C943E000C943E0034
S11300500C943E000C943E000C943E000C943E0024
S11300600C943E000C943E0011241FBECFEFD8E048
S1130070DEBFCDBF0E945F000C9464000C940000AE
S11300808AB181608AB98AB182608AB98AB180648E
S11300908AB98BB181608BB98BB18D7F8BB984B5F3
S11300A0836084BD85B5877F85BD84B5806884BD44
S11300B085B5836085BD089580E887BD08950E9455
S10F00C040000E945C00FDCFF894FFCFCC
S9030000FC
