S00B00007131342E7372656343
S11300000C9434000C943E000C943E000C943E007E
S11300100C943E000C943E000C943E000C943E0064
S11300200C943E000C943E000C943E000C943E0054
S11300300C943E000C943E000C943E000C943E0044
S11300400C943E000C943E000C943E000C943E0034
S11300500C943E000C943E000C943E000C943E0024
S11300600C943E000C943E0011241FBECFEFD8E048
S1130070DEBFCDBF0E9462000C9474000C9400009B
S113008080E480937C0086E880937A000895ECE70E
S1130090F0E08081807F8083EAE7F0E08081806403
S11300A0808380917A0086FDFCCF809178009091C6
S11300B0790008958AB180648AB983E884BD83E0B5
S11300C085BD08950E9440000E945A000E94470086
S11300D0969587959695879587BD8FE39CE90197BB
S10F00E0F1F700C00000F2CFF894FFCF4D
S9030000FC
