S01300006D696E6970726F6A6563742E737265636D
S11300000C9434000C9449000C9449000C9449005D
S11300100C9449000C9449000C9449000C94490038
S11300200C9449000C9449000C9449000C94490028
S11300300C9449000C9449000C9449000C94490018
S11300400C9449000C9449000C9449000C94490008
S11300500C9449000C9449000C9449000C944900F8
S11300600C9449000C94490011241FBECFEFD8E032
S1130070DEBFCDBF11E0A0E0B1E0E0EEF4E002C0ED
S113008005900D92A238B107D9F70E946E010C9425
S11300906E020C94000087B18F6087B987B18F78A6
S11300A087B988B18F6088B988B1806788B90895A5
S11300B030E051C088B18F6088B928B1632F70E0F7
S11300C081E090E0032E02C0880F991F0A94E2F7A2
S11300D08095822388B92AE12A95F1F700C020E0AF
S11300E037C086B1E22FF0E0AF014C5F5F4F90E084
S11300F0042E02C0959587950A94E2F780FD27C0E7
S11301008FEF99EF20E0815090402040E1F700C04C
S1130110000086B190E0042E02C0959587950A945C
S1130120E2F780FFF6CF8FEF99EF20E08150904007
S11301302040E1F700C00000CB01880F991F680F31
S1130140791F60507F4FE60FF71F808108952F5F5E
S1130150233038F23F5F343008F4ACCF80E00895A8
S113016085B1886085B985E08A95F1F7000085B18D
S1130170877F85B987EC90E00197F1F700C0000014
S113018008959BB1937C9BB983FF03C09BB194609A
S11301909BB982FF03C09BB198609BB981FF03C0E8
S11301A09BB190619BB980FF03C08BB180628BB916
S11301B00E94B0000895CF93C82F613021F485B117
S11301C0806185B903C085B18F7E85B98C2F8295F6
S11301D08F700E94C1008C2F8F700E94C100CF913C
S11301E00895CF93C82F60E00E94DB00C150C23055
S11301F030F48FE39FE10197F1F700C00000CF9145
S1130200089561E00E94DB000895882311F090E4D2
S113021001C090E0862F8F70890F80680E94F100E2
S11302200895CF93DF93EC0103C021960E9401014E
S113023088818111FACFDF91CF91089581E00E94E6
S1130240F100089584B1806184B984B1886084B96F
S11302508AB18C638AB92FEF89EF90E021508040F6
S11302609040E1F700C0000085B18F7E85B985B16B
S1130270877F85B983E00E94C1008FE19EE40197E6
S1130280F1F700C0000083E00E94C10087E592E01E
S11302900197F1F700C0000083E00E94C10087E5E8
S11302A092E00197F1F700C0000082E00E94C100D3
S11302B087E592E00197F1F700C0000088E20E9410
S11302C0F10088E00E94F10081E00E94F10086E0E4
S11302D00E94F1008CE00E94F1000895CF93DF9317
S11302E000D000D01F92CDB7DEB70E9422010E9439
S11302F04B000E9455020E941E0160E080E00E94B3
S113030005018CE091E00E94110160E081E00E940F
S113031005018AE191E00E9411012FEF87EA91E63D
S1130320215080409040E1F700C0000080E008C008
S1130330E1E0F0E0EC0FFD1FE80FF11D10828F5F8C
S11303408530B0F30E941E0160E080E00E94050148
S113035086E291E00E94110160E081E00E940501C3
S113036010E013C00E945800882379F090ED980F94
S11303709A3058F4E1E0F0E0EC0FFD1FE10FF11DBD
S113038080838AE20E9401011F5F143058F31D82AA
S113039066E371E0CE0101960E946502892B99F50E
S11303A00E941E0160E080E00E9405018BE391E061
S11303B00E94110160E081E00E9405018AE491E05D
S11303C00E9411010E945B022FEF83E294EF2150FF
S11303D080409040E1F700C000000E944B020E9460
S11303E01E0160E080E00E94050188E591E00E9422
S11303F011012FEF8DE399E4215080409040E1F703
S113040000C0000093CF0E941E0160E080E00E94C3
S1130410050184E691E00E94110160E081E00E9400
S1130420050183E791E00E9411012FEF87EA91E62D
S1130430215080409040E1F700C0000077CF85B1A3
S1130440846085B98FE99FE00197F1F700C000004F
S113045085B18B7F85B99FE72DEE80E091502040D8
S11304608040E1F700C00000089585B1846085B93B
S11304708FE697E10197F1F700C0000085B18B7F0B
S113048085B99FE327EE80E0915020408040E1F75A
S113049000C000000895CF93C0E003C00E941F0273
S11304A0CF5FC530D8F3CF91089584B1846084B907
S11304B00E944B020895CF93C0E003C00E9435020E
S11304C0CF5FC530D8F3CF910895FB01DC018D9146
S11304D0019080190110D9F3990B0895F894FFCF76
S11304E03132333435363738392A30235041535377
S11304F0574F524420444F4F52004C4F434B2053CC
S1130500595354454D00456E7465722050617373A0
S1130510776F72643A003135333400416363657335
S113052073204772616E74656400446F6F72205566
S11305306E6C6F636B656400446F6F72204C6F6305
S11305406B65640057726F6E672050617373776FC9
S11305507264004163636573732044656E69656406
S1050560000095
S9030000FC
