:100000000C9434000C943E000C943E000C943E0082
:100010000C943E000C943E000C943E000C943E0068
:100020000C943E000C943E000C943E000C943E0058
:100030000C943E000C943E000C943E000C943E0048
:100040000C943E000C943E000C943E000C943E0038
:100050000C943E000C943E000C943E000C943E0028
:100060000C943E000C943E0011241FBECFEFD8E04C
:10007000DEBFCDBF0E9440000C945A000C940000DB
:100080008FEF84B980E013C021E030E0082E02C079
:10009000220F331F0A94E2F725B92FEF33EC99E0D2
:1000A000215030409040E1F700C000008F5F883061
:0800B00058F3E8CFF894FFCFEC
:00000001FF
