:100000000C9434000C943E000C943E000C943E0082
:100010000C943E000C943E000C943E000C943E0068
:100020000C943E000C943E000C943E000C943E0058
:100030000C943E000C943E000C943E000C943E0048
:100040000C943E000C943E000C943E000C943E0038
:100050000C943E000C943E000C943E000C943E0028
:100060000C943E000C943E0011241FBECFEFD8E04C
:10007000DEBFCDBF0E945B000C949C000C9400007E
:10008000823089F028F4882341F0813049F00895C6
:10009000833061F0843069F0089580E487BD08956D
:1000A00080E887BD089580EC87BD08958FEF87BDF8
:1000B000089517BC08958AB180648AB98AB18360B3
:1000C0008AB98BB181608BB98BB18D7F8BB98AB1C5
:1000D0008B7F8AB98BB184608BB983E884BD83E060
:1000E00085BD80E00E944000C0E04A99FECF2FEF1E
:1000F00080E792E0215080409040E1F700C000008E
:100100004A99F3CFCF5FC53008F0C0E08C2F0E9432
:10011000400006C08FE39CE90197F1F700C00000A2
:100120004A9BF8CF9FEF20E782E09150204080402B
:0C013000E1F700C00000D9CFF894FFCF29
:00000001FF
