:100000000C9434000C943E000C943E000C943E0082
:100010000C943E000C943E000C943E000C943E0068
:100020000C943E000C943E000C943E000C943E0058
:100030000C943E000C943E000C943E000C943E0048
:100040000C943E000C943E000C943E000C943E0038
:100050000C943E000C943E000C943E000C943E0028
:100060000C943E000C943E0011241FBECFEFD8E04C
:10007000DEBFCDBF0E945D000C9471000C940000A7
:1000800016BC89EF87BD84B5826084BD84B58E7F40
:1000900084BD85B5836085BD85B58B7F85BD08959D
:1000A00006C0A99BFECF85B3826085BBC9019C01B8
:1000B00021503109892BA9F7089584B1806284B950
:1000C0000E94400085B1806285B988EB9BE00E9468
:1000D000500085B18F7D85B988EB9BE00E94500070
:0600E000F1CFF894FFCF00
:00000001FF
